:1000000002000375817075D00075A0FF75B0FF11F7
:100010008811A1318B3109753B0071D79160F53D95
:10002000B441057539008006B442F1753901753A5D
:100030000111A13109312B71F0E53B60028040E5EF
:1000400039B40113E53AB4020E5169E53F602BF56E
:100050003E31A450E480139160F53DB4430280B377
:1000600091EB60F3F53E31A450ED31D1E53B7002E8
:1000700031C471F0E53B70C180BF753B03800091D6
:100080005F9160B443FB808B743811A811E8740C45
:1000900011A811E8740111A811E8740611A811E85B
:1000A00022740111A811E822F590C280C281D28287
:1000B00011E8C28222F590D280C281D28211E8C2B8
:1000C0008222E8B4010474808010B4020474C080F9
:1000D00009B403047494800274D42911A822E4930F
:1000E000600511B5A380F7227E237FFFDFFEDEFAD5
:1000F00022205F207C205F207C205F20002D2D2D82
:100100002B2D2D2D2B2D2D2D007801790011C29036
:1001100000F111DE7802790011C29000F111DE7851
:1001200003790011C29000F111DE22753E01319574
:10013000B4010575F058800BB4020575F04F8003CB
:1001400075F05FE53E314F053EE53EB40AE022C062
:10015000E0315C11C2E5F011B5D0E022FA1A7B0063
:10016000C3EA94034004FA0B80F6EBB40004780170
:100170008009B40104780280027803EAB4000379AC
:100180000122B401037905227909227830790976B0
:100190000008D9FB22E53E142430F8E622E53E149F
:1001A0002430F822319DE6B40016E53AF6E53AB47B
:1001B000010575F058800375F04FE53E314FD322AD
:1001C0009144C322E53AB40104753A0222753A011A
:1001D00022753B007C007D017E02514B6003F53BA4
:1001E000227C037D047E05514B6003F53B227C0697
:1001F0007D077E08514B6003F53B227C007D037E2A
:1002000006514B6003F53B227C017D047E07514B78
:100210006003F53B227C027D057E08514B6003F5AF
:100220003B227C007D047E08514B6003F53B227C21
:10023000027D047E06514B6003F53B2278307F0936
:10024000E6600708DFFA753B032222EC5164601177
:10025000F5F0ED5164B5F009EE5164B5F003E5F049
:10026000227400222430F8E622753F00740251D631
:10027000E53F7058740151D6E53F7050753E053129
:10028000957005753F058044753E0151CDE53F7081
:100290003B753E0351CDE53F7032753E0751CDE5CC
:1002A0003F7029753E0951CDE53F7020753E0251E2
:1002B000CDE53F7017753E0451CDE53F700E753E9C
:1002C0000651CDE53F7005753E0851CD2231957040
:1002D00004E53EF53F22F540753F00753E0131953E
:1002E0007020319D8641E540F6E540710AF54231C6
:1002F0009DE541F6E5426006E53EF53F800BE53FB2
:100300007007053EE53EB40AD522F5F07C007D017C
:100310007E02716270497C037D047E057162703FCC
:100320007C067D077E08716270357C007D037E0649
:100330007162702B7C017D047E07716270217C02EA
:100340007D057E08716270177C007D047E087162F5
:10035000700D7C027D047E0671627003740022744D
:100360000122EC5164B5F00FED5164B5F009EE5186
:1003700064B5F003740122740022544943205441AF
:100380004320544F4500413A50765020423A41496B
:10039000005475726E3A0050764149005076500014
:1003A000496E76616C696400202020202020202086
:1003B000002020202020202020202020202020205D
:1003C000202020202000582057494E004F20574918
:1003D0004E00445241570011A17801790011C2909A
:1003E000037A11DE7802790011C290038611DE22B1
:1003F0007804790011C29003B111DE7804790C11F0
:10040000C2E53B6018B403069003D211DE22B402A9
:10041000069003CC11DE229003C611DE22900391D8
:1004200011DEE53AB40204744F8002745811B574B9
:100430002011B5E539B4010690039711DE2290032F
:100440009C11DE227804790011C29003A011DE1104
:10045000E811E87804790011C29003A811DE222285
:1004600075A0FF75B0FFE5A0B4FFF5E5B0B4FFF0EF
:1004700091E2E5A0B4FF07E5B0B4FF0280F291E29B
:1004800030A02F30A12F30A22F30A32F30A42F3037
:10049000A52F30A62F30A72F30B02F30B12F30B27C
:1004A0002F30B32F30B42F30B52F30B62F30B72FB9
:1004B00080BE743122743222743322744122743427
:1004C0002274352274362274422274372274382200
:1004D000743922744322742A2274302274232274C1
:1004E00044227D327EFFDEFEDDFA22F540C39431E8
:1004F000400DE540C3943A5006E540C39430227461
:020500000022D7
:00000001FF
